:100000000C9402010C9424010C9424010C942401FE
:100010000C9424010C9424010C9424010C942401CC
:100020000C9424010C9424010C9424010C942401BC
:100030000C9424010C9424010C9424010C942401AC
:100040000C9424010C9424010C9424010C9424019C
:100050000C9424010C9424010C9424010C94C801E8
:100060000C9424010C9424010C9424010C9424017C
:100070000C9424010C9424010C9424010C9424016C
:100080000C9424010C9424010C9424010C9424015C
:100090000C9424010C9424010C9424010C9424014C
:1000A0000C9424010C9424010C9424010C9424013C
:1000B0000C9424010C9424010C9424010C9424012C
:1000C0000C9424010C9424010C9424010C9424011C
:1000D0000C9424010C9424010C9424010C9424010C
:1000E0000C94240100002100240027002A002D0088
:1000F0003000330001010000040107010A01000083
:100100002200250028002B002E00310034000201BF
:100110000000050108010B0100002000230026005B
:1001200029002C002F00320000010000030106010D
:10013000090105050505070508080808020202026D
:100140000A0A080804040404010101010101010173
:100150000303030303030303040707070C0C0C0C3E
:100160000C0C0C0C02020202060606060606060627
:100170000B0B0B0B0B0B0B0B0102102020080810B4
:100180002040102040800201020108040201010207
:1001900004081020408080402010080402018004E0
:1001A000020180402010080402010804020101023B
:1001B0000408102040800102040810204080000044
:1001C000090A02080B0C0D070603040100000000D9
:1001D000000000000000000000000000000000001F
:1001E0000000000000000000000011100F000000DF
:1001F00000000000000000000000000000000000FF
:100200000000000011241FBECFEFD1E2DEBFCDBF42
:1002100000E00CBF12E0A0E0B2E0E2E0FAE000E0B3
:100220000BBF02C007900D92A230B107D9F71BBED9
:1002300012E0A2E0B2E001C01D92AB30B107E1F7DD
:100240000E94B9010C94FF040C94000089E061E065
:100250000E94CB0208959F92AF92BF92CF92DF92FD
:10026000EF92FF920F931F93982E84E1A82EB12C4A
:10027000CB018A9DB0018B9D700D9A9D700D11244C
:10028000882777FD8095982F0E944C0420E030E06D
:1002900048EC52E40E94B1030E9419047B018C01D6
:1002A000892D61E00E947E03B701882777FD809544
:1002B000982F0E941002892D60E00E947E03AE18E4
:1002C000BF08CC24B7FCC094DC2CC601B5010E9449
:1002D00010021F910F91FF90EF90DF90CF90BF9091
:1002E000AF909F900895CF92DF92EF92FF920F937D
:1002F0001F93CF93DF936C01CB0164E670E00E9403
:10030000D8048B0194E6E92EF12C0EC0C601B7018A
:100310000E942B016496C017D107C4F30894E1082A
:10032000F108E114F10419F0C0E0D0E0F4CFDF915E
:10033000CF911F910F91FF90EF90DF90CF90089594
:100340008091000290910102892B91F089E061E097
:100350000E947E0389E090E060E177E20E947301F1
:1003600089E060E00E947E03109201021092000278
:100370000895CF93DF930E9469020E942601C0E096
:10038000D0E00E94A0012097E1F30E940000F9CF85
:100390001F920F920FB60F9211242F933F938F93BA
:1003A0009F93AF93BF938091060290910702A09113
:1003B0000802B091090230910A020196A11DB11DF7
:1003C000232F2D5F2D3720F02D570196A11DB11D34
:1003D00020930A028093060290930702A0930802DA
:1003E000B09309028091020290910302A09104024D
:1003F000B09105020196A11DB11D80930202909358
:100400000302A0930402B0930502BF91AF919F91A4
:100410008F913F912F910F900FBE0F901F901895C5
:100420009B01AC017FB7F894809102029091030286
:10043000A0910402B091050266B5A89B05C06F3F6C
:1004400019F00196A11DB11D7FBFBA2FA92F982FBA
:100450008827860F911DA11DB11D62E0880F991F8D
:10046000AA1FBB1F6A95D1F7BC012DC0FFB7F89436
:100470008091020290910302A0910402B0910502C2
:10048000E6B5A89B05C0EF3F19F00196A11DB11D6F
:10049000FFBFBA2FA92F982F88278E0F911DA11D5E
:1004A000B11DE2E0880F991FAA1FBB1FEA95D1F783
:1004B000861B970B885E9340C8F221503040404025
:1004C000504068517C4F211531054105510571F6A9
:1004D0000895789484B5826084BD84B5816084BDBC
:1004E00085B5826085BD85B5816085BDEEE6F0E0AD
:1004F000808181608083E1E8F0E010828081826009
:100500008083808181608083E0E8F0E08081816089
:100510008083E1EBF0E0808184608083E0EBF0E0B9
:10052000808181608083E1E9F0E080818260808366
:10053000808181608083E0E9F0E080818160808358
:10054000E1EAF0E080818260808380818160808345
:10055000E0EAF0E0808181608083E1E2F1E0808187
:1005600082608083808181608083E0E2F1E080812D
:1005700081608083EAE7F0E080818460808380810D
:1005800082608083808181608083808180688083B5
:100590001092C1000895CF93DF93482F50E0CA0115
:1005A00088589E4FFC0134914E5C5E4FFA01849155
:1005B000882369F190E0880F991FFC01EC51FF4FEF
:1005C000A591B491FC01E250FF4FC591D4916623EF
:1005D00051F42FB7F8948C91932F909589238C9395
:1005E000888189230BC0623061F42FB7F8948C9115
:1005F000932F909589238C938881832B88832FBF99
:1006000006C09FB7F8948C91832B8C939FBFDF918A
:10061000CF910895893009F449C08A30A0F484301C
:1006200051F1853040F4823079F1833000F581302A
:1006300009F063C026C0873079F1883098F586309C
:1006400009F05BC025C08D3009F442C08E3028F41B
:100650008B30B1F18C30C0F52DC0803109F442C02F
:10066000813109F445C08F3009F047C037C080910F
:1006700080008F7703C0809180008F7D8093800001
:10068000089584B58F7702C084B58F7D84BD0895A9
:100690008091B0008F7703C08091B0008F7D8093F0
:1006A000B0000895809190008F7707C080919000EE
:1006B0008F7D03C080919000877F80939000089584
:1006C0008091A0008F7707C08091A0008F7D03C02C
:1006D0008091A000877F8093A000089580912001E1
:1006E0008F7703C0809120018F7D80932001089532
:1006F00080912001877F809320010895FF920F93BE
:100700001F93F62E482F50E0CA0182549E4FFC01E1
:100710002491CA0188589E4FFC0114914E5C5E4F93
:10072000FA0104910023C9F0222319F0822F0E94BC
:100730000A03E02FF0E0EE0FFF1FE250FF4FA591FC
:10074000B4919FB7F894FF2021F48C9110958123E8
:1007500002C08C91812B8C939FBF1F910F91FF90B2
:1007600008950CD0EBC0E3D040F0DAD030F021F4A3
:100770005F3F19F0CCC0511115C1CFC0F0D098F334
:100780009923C9F35523B1F3951B550BBB27AA2712
:1007900062177307840738F09F5F5F4F220F331F84
:1007A000441FAA1FA9F333D00E2E3AF0E0E830D050
:1007B00091505040E695001CCAF729D0FE2F27D053
:1007C000660F771F881FBB1F261737074807AB0721
:1007D000B0E809F0BB0B802DBF01FF2793585F4F96
:1007E0002AF09E3F510568F092C0DCC05F3FECF3F9
:1007F000983EDCF3869577956795B795F7959F5F5B
:10080000C9F7880F911D9695879597F90895E1E0AE
:10081000660F771F881FBB1F621773078407BA070D
:1008200020F0621B730B840BBA0BEE1F88F7E09568
:10083000089504D06894B111B5C0089598D088F097
:100840009F5790F0B92F9927B751A0F0D1F0660FBC
:10085000771F881F991F1AF0BA95C9F712C0B130D7
:1008600081F09FD0B1E008959CC0672F782F882732
:10087000B85F39F0B93FCCF3869577956795B39516
:10088000D9F73EF490958095709561957F4F8F4F85
:100890009F4F0895E89409C097FB3EF4909580958A
:1008A000709561957F4F8F4F9F4F9923A9F0F92F36
:1008B00096E9BB279395F695879577956795B795B4
:1008C000F111F8CFFAF4BB0F11F460FF1BC06F5F9A
:1008D0007F4F8F4F9F4F16C0882311F096E911C0AC
:1008E000772321F09EE8872F762F05C0662371F0CD
:1008F00096E8862F70E060E02AF09A95660F771FE1
:10090000881FDAF7880F9695879597F9089597F9D4
:100910009F6780E870E060E008959FEF80EC0895A5
:1009200000240A94161617061806090608950024CE
:100930000A9412161306140605060895092E039448
:10094000000C11F4882352F0BB0F40F4BF2B11F4BC
:1009500060FF04C06F5F7F4F8F4F9F4F089557FD1B
:100960009058440F551F59F05F3F71F04795880F1D
:1009700097FB991F61F09F3F79F0879508951216B4
:1009800013061406551FF2CF4695F1DF08C0161660
:1009900017061806991FF1CF869571056105089411
:1009A0000895E894BB2766277727CB0197F9089528
:1009B00097FB092E07260AD077FD04D00CD006D06D
:1009C00000201AF4709561957F4F0895F6F7909581
:1009D00081959F4F0895AA1BBB1B51E107C0AA1F19
:1009E000BB1FA617B70710F0A61BB70B881F991FD0
:1009F0005A95A9F780959095BC01CD010895F8947A
:020A0000FFCF26
:020A02000100F1
:00000001FF
